:020000040800F2
:100000002008002061020008A93D0008A12F000877
:1000100000000000000000000000000000000000E0
:10002000000000000000000000000000D1400008B7
:100030000000000000000000AB3D0008FD4000088B
:100040007302000800000000730200087302000839
:1000500073020008730200087302000873020008AC
:100060000000000073020008B71E000873020008B9
:10007000A31E00086F410008730200080000000082
:100080007302000800000000000000007302000876
:1000900000000000730200087302000873020008E9
:1000A000730200087302000873020008854100080B
:1000B000A541000800000000000000000000000052
:1000C00000F002F800F0BDF80CA030C80838241881
:1000D0002D18671EA246AB4654465D46AC4201D180
:1000E00000F0AFF87E460F3EB6460FCC01263342F5
:1000F00000D0FB1A3343A246AB4618471853000002
:1001000038530000103A02D378C878C1FAD85207A1
:1001100001D330C830C101D504680C6070470000BD
:100120000023002400250026103A01D378C1FBD813
:10013000520700D330C100D50B60704710B56E294F
:1001400002D100F005FD10BD702902D100F07BF94D
:1001500010BD662902D105F065F810BD652902D1F0
:1001600005F060F810BD672902D105F05BF810BDFD
:10017000612902D105F05EF810BD03681B0A01D3A6
:1001800080231943692902D100F0E8F810BD6429E1
:1001900002D100F0E3F810BD752902D100F0DEF8BD
:1001A00010BD6F2902D100F0C5FD10BD782902D124
:1001B00000F036F910BDE92902D100F061FD10BD53
:1001C000E42902D100F05CFD10BDF52902D100F058
:1001D00057FD10BDEF2902D100F0B8FD10BDF82980
:1001E00002D100F02BF910BD0368DB0901D3802395
:1001F0001943632902D101F086F910BD732902D198
:1002000001F089F910BDE32902D101F093F910BD85
:10021000F32902D101F096F910BD002010BD1FB5E1
:1002200001F010FA04000020002104F0B5FE401C8B
:1002300060600020002104F099FEE0601FBD10B551
:1002400010BD01F0D7F91146FFF7E9FF04F0ACF853
:1002500001F06CFD03B4FFF7F2FF03BC01F01AFEDE
:100260000748804707480047FEE7FEE7FEE7FEE74E
:10027000FEE7FEE704480549054A064B70470000C3
:100280006D410008C1000008200200202008002065
:1002900020040020200400207CB51D4616460C00DA
:1002A000009001D00019401E084B7B442A46694645
:1002B0000190304600F065FC002C054603D06946ED
:1002C000002000F071FC28467CBD000005090000FC
:1002D0000FB47CB50C0009AA009001D00019401E93
:1002E000094B7B4469460190089800F04AFC002CB9
:1002F000054603D06946002000F056FC28467CBC29
:1003000008BC04B018470000CD08000070B50446D2
:1003100085690068C10601D5302600E02026C007A7
:1003200007D070BD62683046A1689047206A401CC3
:1003300020626D1EF6D570BD70B5044685690078E3
:10034000C00707D170BD6268A16820209047206A6D
:10035000401C20626D1EF6D570BD0000F7B500256B
:1003600075291068009914A611D000F05EFB0028D2
:1003700002DA404211A608E0009909688A0701D50F
:100380000FA602E0490704D50EA6012501E000F002
:1003900055FB009F0024243704E000F0E1FC3031DD
:1003A0003955641C0028F8D12B4632462146009866
:1003B00000F076FBFEBD0000000000002D000000F4
:1003C0002B00000020000000F8B50F460188090549
:1003D00002D5224C7C4402E0204C7C440E3405467D
:1003E0000021243508E016071209360FA65D6E5469
:1003F0001E0732431B09491C16461E43F3D12246F1
:1004000004780023240705D5702F06D0002901D0D9
:100410000223113200F044FBF8BD01231032F9E74A
:1004200070B504460D462146106800F007FB002316
:10043000024629462046FFF7C7FF70BDD21DD308EC
:10044000DB000CCBC0E730B40368202412682343E0
:1004500003600823C36130BC0023B5E76C4E000085
:10046000F3B50446002081B020622046E168884749
:10047000002872D0252802D06268A168ABE0594FED
:1004800000267F442046E16888472028054608DB8F
:10049000312D06D2781920380078002801D0064383
:1004A000F0E7B00701D5042086430020E06107464D
:1004B000A0612A2D0AD0284604F051FD002827D03B
:1004C000B8000019303D0090856119E00298BA002B
:1004D000121902C8916102902046E1688847012FF5
:1004E000054617D1E06900281FDA202086431CE06A
:1004F00000980A2180694843009940193038886182
:100500002046E1688847054604F029FD0028EFD120
:10051000012F0AD02E2D08D12046E16888470546D4
:10052000202006437F1C022FC3DBA069002803DACA
:100530004042A06101200643F00701D0102086430D
:100540006C2D0BD0682D09D04C2D3CD06A2D38D0A5
:10055000742D38D07A2D36D016E040E0E1682F4671
:1005600020468847B842054609D16C2F29D0012082
:100570008002E168064320468847054604E06C2F68
:100580001DD0FF2001300643002D28D028464138D9
:10059000192803D80120C0020643203520462660D2
:1005A0002946029A1646FFF7C9FD002810D00128F7
:1005B0000BD0F61DF008C0000830029055E740202F
:1005C000E1E78020D5E70020D3E7361D02964CE70F
:1005D00062682846A1689047206A401C44E7206A68
:1005E000FEBD0000E64D000030B5441C03E001787C
:1005F000401C00290DD08107F9D10B4BDD0104C847
:10060000D11A91432940FAD0001B0A0603D0C01E1C
:1006100030BD001B30BD0A0401D0801E30BD090270
:10062000FCD0401E30BD00000101010101E004C00A
:10063000091F0429FBD28B0701D50280801CC90742
:1006400000D00270704700290BD0C30702D002709F
:10065000401C491E022904D3830702D50280801C56
:10066000891EE3E70022EEE70022DFE7002203090C
:100670008B4273D3030A8B4258D3030B8B423CD378
:10068000030C8B4221D312E003460B437FD400229C
:1006900043088B4274D303098B425FD3030A8B4216
:1006A00044D3030B8B4228D3030C8B420DD3090296
:1006B000FF2212BA030C8B4202D31212090265D038
:1006C000030B8B4219D300E0090AC30B8B4201D301
:1006D000CB03C01A5241830B8B4201D38B03C01A48
:1006E0005241430B8B4201D34B03C01A5241030BBF
:1006F0008B4201D30B03C01A5241C30A8B4201D370
:10070000CB02C01A5241830A8B4201D38B02C01A1A
:100710005241430A8B4201D34B02C01A5241030A91
:100720008B4201D30B02C01A5241CDD2C3098B4276
:1007300001D3CB01C01A524183098B4201D38B01F3
:10074000C01A524143098B4201D34B01C01A524196
:1007500003098B4201D30B01C01A5241C3088B42DB
:1007600001D3CB00C01A524183088B4201D38B00C6
:10077000C01A524143088B4201D34B00C01A524168
:10078000411A00D201465241104670475DE0CA0F3F
:1007900000D04942031000D3404253409C460022FF
:1007A00003098B422DD3030A8B4212D38901FC2209
:1007B00012BA030A8B420CD3890192118B4208D3DF
:1007C000890192118B4204D389013AD0921100E041
:1007D0008909C3098B4201D3CB01C01A5241830955
:1007E0008B4201D38B01C01A524143098B4201D382
:1007F0004B01C01A524103098B4201D30B01C01AAD
:100800005241C3088B4201D3CB00C01A5241830826
:100810008B4201D38B00C01A5241D9D243088B427C
:1008200001D34B00C01A5241411A00D20146524135
:10083000104663465B1001D34042002B00D549426D
:10084000704763465B1000D3404201B5044900285D
:1008500002DC491C084000E00846C046C04602BD14
:10086000FFFFFF7F7047704770470000F0B5FF251E
:100870002D04C609C209FF2704462E400137CB09C3
:100880003E4348402A402B400746002A6BD0002BAD
:1008900069D0AA4267D0AB4265D0002800DA324660
:1008A0000125ED0529432C4309022002090AD21A29
:1008B0004B0C7F24E31A434C000A7C44E35C7D2408
:1008C0002404121914145B00A218884201D3521C8C
:1008D00000E0400049420C465C4324115C43DB01CC
:1008E0006415E318040A5C43C502200D0C4644431A
:1008F0006419250A5D432303EC0C0D466543000390
:100900000019EB184C42A34201D35B18401CD405DC
:100910002018002B07D05B00C91804D3401C002905
:1009200001D1400840003F2189048A4209D3002AAE
:1009300008DC1106090F04D0032149074018C00F35
:10094000C007F0BD01224100120689187F2252061D
:100950009142F6D205214907C84201D59010F0BD59
:10096000FF20C005F0BD002F00DA32461648AA422B
:1009700007D2AB4205D21902090E17D0F80FC007F3
:10098000F0BDFF2563002D06AB42F9D84900A9420E
:10099000F6D8AB4201D1A942F2D0A94201D100213F
:1009A00001E061004908D0050843F0BD1102090EBD
:1009B000FBD0FF200243D005F0BD0A460146104699
:1009C00054E70000BF4900000000C07F1F22030C55
:1009D00002D10F2200041CD0030E01D10002083AFC
:1009E000030F01D10001121F830F01D18000921E5D
:1009F000002801DB4000521ED20551180212511886
:100A00001922904004D3491C002801D1490849000B
:100A100008467047C10FC90700D040420122920723
:100A20001143D3E701218907D0E709684A0501D5B9
:100A300040B27047C905FCD500B2704709684A0545
:100A400001D5C0B27047C905FCD580B2704770B5FA
:100A50000C460546012A05D02878800600D5EA69AB
:100A6000002302E0012305E05B1C934202D2E05C1C
:100A70000028F9D1A869E618C01AA861286AC01828
:100A800028622846FFF742FC04E06A682078A968DB
:100A9000641C9047B442F8D32846FFF74DFC70BD64
:100AA000FFB504460D4681B02430009021688806C9
:100AB00004D51022E0699143216000E00120A842A2
:100AC00001DD471B00E000270498A1697A1910187E
:100AD000081AA0612078C00602D42046FFF716FC51
:100AE000002608E003986268A168805D9047206A4C
:100AF000401C761C206204988642F3DB2078C006F6
:100B00000AD52046FFF702FC06E06268A1683020A3
:100B10009047206A401C206238467F1E0028F4DC83
:100B200007E000986268A168405D9047206A401C19
:100B3000206228466D1E0028F3DC2046FFF7FCFBF0
:100B40002078000602D5022005B0F0BD0120FBE7A9
:100B500011680268006A530501D5087009E0D305E1
:100B600001D5088005E0130602D5C21705C100E0D3
:100B7000086001207047000001694A1C0261087882
:100B8000704700B58FB0029100210591054901938E
:100B900079440391114604906846FFF761FC0FB059
:100BA00000BD0000E5FFFFFF0A681070521C0A60DC
:100BB00070470CC908399A4202D2531C0B6010705E
:100BC00070470000F7B50446154686B02B487844B8
:100BD000002703C83E460090019111E007986A463D
:100BE0007100415A02A800F0B1FC411C07D02178E5
:100BF000890603D5E269391891420ED83F18761C50
:100C00002078800602D5E069B84206DDAE42E5DB19
:100C100007987100405A0028E0D1A069C01BA0616C
:100C20002046FFF773FB154878445A3803C80090F4
:100C30000020019116E041006A460798415A02A837
:100C400000F084FC0590401C0AD0002505E0626895
:100C500002A8A168405D90476D1C05988542F6D3B7
:100C60000498401CB0420490E5DB206AC019206261
:100C70002046FFF761FB09B0F0BD0000EE46000022
:100C8000F7B5D21D0025D20815A6D200F52905CA50
:100C900011D0002A05DA00214042914111A60A46EE
:100CA00008E0009909688B0701D50FA602E0490703
:100CB00001D50EA601251146009F0024243704E02B
:100CC00000F062F830323A55641C02460A43F7D10C
:100CD0002B46324621460098FFF7E2FEFEBD00009B
:100CE000000000002D0000002B000000200000008C
:100CF00070B504460021243408E05507D2086D0F72
:100D0000303565545D072A43DB08491C15461D43F1
:100D1000F3D10468002310A2250708D520252C4014
:100D20000C4304D0C46901230CA2641EC461FFF704
:100D3000B7FE70BD10B5044621461068FFF77EFE71
:100D4000002302462046FFF7D3FF10BDD21DD10875
:100D5000C9000CC9CCE70000000000003000000012
:100D600001468008081A02091018020A1018020C1D
:100D70001018C008820012185200891A01E0401CA5
:100D80000A390A29FBD270470B4670B5024689071B
:100D90008008084319469D08141AA9412509080727
:100DA000054308092C194841250A01060D43010A8B
:100DB0002C194141200C0D0428430D0C00194D4104
:100DC000002140194D41C00869070843E908840F14
:100DD0008D002543840024184D4124196D41121BB8
:100DE000AB4107E00925ED432C1152196341002462
:100DF000401C61411C460A250026551BB441F1D216
:100E000070BD0000FFB50C461E468FB003CA0890A7
:100E100009914F007D0D00D16D1E00210846002074
:100E2000C0460321099A89050840002A03DA820096
:100E3000801840080840800D01280A9002DD00203B
:100E4000C0430A90089807430DD0F048F04928188D
:100E500048430714189800281DD07542291E1DDD2F
:100E60000A9842421BE01898012802D00020302145
:100E700004E00020F24305E02154401CB042FBDBBB
:100E800030460022189B002121540F998B600A6084
:100E9000486013B0F0BDBD1B6D1CDFE70A9A002946
:100EA00000DA69420BA800F015FC0BAB07CB03ABD3
:100EB00007C30899099800F079FC6B4607C30146FF
:100EC000D4480918002D00910BDDD24903980A9AE5
:100ED00049424018002303A90390684600F0D6FE5B
:100EE00008E003990A9A0023081803A903906846AA
:100EF00000F076FE6B4607C30004000C03D0002010
:100F0000C043410800E01046189A002A03D000228E
:100F1000009215461EE0751E05D4FFF735FF3032EE
:100F200062556D1EF9D501220843079602D00022B2
:100F30007F1C04E02078302801D100227F1E002A87
:100F4000069787D01EE0112D07DAFFF71DFF30321C
:100F500062556D1C02460A43F5D1084303D0009840
:100F6000002819D00EE00021681E05E0235C625CB9
:100F700063542254401E491C8142F7DBA81B401ECB
:100F800007950690079A18990020A0540F98079B80
:100F9000069A81600CC07CE711260020189059E762
:100FA000D21DF0B50D460446D10893B0C90003C95F
:100FB0000C900D9103F0B2FF02460D98C00F01D0C6
:100FC0002D2007E02068810701D52B2002E0400793
:100FD000C00F4001032A0F9001D0072A05DB03460A
:100FE0002946204600F032FB0EE12078800601D52C
:100FF000E76900E006272846652D04D0662814D04E
:10100000672D69D12DE00020112F009001DB112305
:1010100000E07B1C0CAA03A910A8FFF7F3FE1199AE
:10102000002610987D1C0E9142E001203B460CAA40
:10103000C0070B900120009003A910A8FFF7E2FE63
:10104000119D12981099002600280E9501D1781C48
:101050000D18781B02D446427D1C761EE81B0090BA
:101060003AE0012F00DA01270020112F009001DD66
:10107000112300E03B460CAA03A910A8FFF7C2FE0B
:1010800011993D46109800260E91217809070BD43E
:101090000E99A94200DA0D4603A9012D04DD4A1973
:1010A000203AD27F302A06D0B84201DA011D04DA94
:1010B000012100910FE06D1EEFE7002802DC861988
:1010C0002D1A03E0411CA94200DD0D46801B401C87
:1010D00000900120C0070B902078000705D40098ED
:1010E000A84202DB0020C043009069460020C8727D
:1010F0000B98012102AF0337C907884225D002208F
:1011000010902B2011900B9800280BDA40420B9086
:101110002D20119006E00B98FFF722FE30317F1E44
:101120000B9039701099481E00291090F3DC0B9831
:101130000028F0D111987F1E38702088000501D555
:10114000452000E065207F1E387001A8C01BC01D2F
:101150000B900F98002800D0012041190098C0176B
:1011600009180B980818A169081A401EA061207878
:10117000C00602D42046FFF7C9F80F98002805D012
:101180006268A1689047206A401C20622078C006EF
:1011900025D52046FFF7BAF821E0002E07DB0E9890
:1011A000B04204DD03A86268805DA16802E0626865
:1011B000A16830209047206A761C401C206200986D
:1011C000401E002800900AD100F03CFAC068626816
:1011D0000168405CA1689047206A401C2062284654
:1011E0006D1E0028D9DC07E062683878A1687F1C92
:1011F0009047206A401C20620B99481E00290B90E2
:10120000F2DC2046FFF798F8032042E601FCFFFFDE
:10121000104D0000E1DFFFFFD21DF0B504460D4682
:10122000D0088DB0C000466807683146384603F0E4
:1012300075FE0246F00F01D02D2307E020688107DC
:1012400001D52B2302E04007C00F43016846002B65
:10125000037001D0012000E00020032A0A9001D091
:10126000072A04DB2946204600F0F0F92DE120781A
:10127000800601D40D2500E0E5697000400D0D2DBC
:1012800001904BDA300D00210B9008460020C0463B
:10129000032189050840002E05DA82008018C20F5C
:1012A0001018401008408015012801DD0020C043BF
:1012B000A9000023182906D39C460A460123183AA0
:1012C0001B07D34003E001221205CA4094460C31AB
:1012D000202902D33A46203900E032468A400028CD
:1012E00002DD002A06D119E0002817D10121C90723
:1012F0008A4213D3194663467F185E41002806D1FF
:101300000120C007824202D1084687439E430B98C2
:10131000310D814202D00198401C019020880005C7
:1013200002D57149794402E06F49794419396B4615
:101330000A9830221A540A980A7C401C1A54401CFD
:101340000A900198002801DC302000E0312018725A
:10135000019A0120002A02D0644BD21804E07200E6
:101360003A4302D0614A521C0192002D02DC2278DD
:10137000120703D56A462E205072022000228646AC
:1013800094460CE032033601120F6D1E8B5C02AAEC
:1013900013546246521C401C9446052A01DA002D63
:1013A000F0DC002202AE08E03B0F3F01CB5C521C98
:1013B0006D1E3354401C082A01DA002DF4DC23682A
:1013C0009A0601D511E0401E704504DD3218203A1E
:1013D000D27F302AF7D0002807DD3218203AD27F9A
:1013E0002E2A02D11A0700D4401E002D03DD3E2212
:1013F0003254401C6D1E497C31540199401C002917
:1014000006DA2D21471C315401984042019003E037
:101410002B21471C315401987D21C900884206DBED
:10142000FFF732F93030F0557F1C019101E064285C
:1014300008DB01986421FFF727F93030F0557F1C55
:10144000019101E00A2806DB01980A21FFF71CF947
:101450003030F0557F1C01980A21FFF715F9303123
:10146000F1550A98A1697F1C7A191018081AA06111
:101470002078C00602D42046FEF748FF216A6E4657
:101480000A980818206204E062683078A168761C27
:1014900090470A98401E0A90401CF5D12078C0065B
:1014A00002D52046FEF732FF02AE09E03078761C06
:1014B0003E280DD06268A1689047206A401C2062D7
:1014C0007F1EF3D22046FEF737FF0DB00320F0BD9C
:1014D000206A4019206203E06268A16830209047CA
:1014E0006D1EEDD3F8E70000B33F000001FCFFFFE5
:1014F00010B54369002B02D0C046C04601E0FFF79B
:10150000A6FA012010BD1278014624310A7000228B
:101510004A700122ECE711680022D243E8E710B5D7
:101520004369002B02D0C046C04601E0FFF74AFBEA
:10153000012010BD12880146243182840022C28419
:101540000122ECE711680022D243E8E7F8B516461D
:101550000C46054600F06EF80368FF200230C05CC0
:10156000012807D0FF2C0FD8185D00280CD00120CF
:101570002C70F8BDFF333246214608331868C7186F
:1015800028460023B847F8BD0020C043F8BD00003E
:1015900010B5FF231B0644009C421DD84C009C4202
:1015A0001AD80346124A0B4307D4401A02D3EFF36A
:1015B000008010BDEFF3008010BD081A03D3EFF3D5
:1015C0000080904305E0EFF3008001219043C907BC
:1015D000084380F3008810BD0D231B041A4204D079
:1015E0001146002000F0AAFB10BD00F0BFFB10BDAB
:1015F00000000090754600F0C1FBAE46050069464C
:101600005346C008C000854618B020B5FEF732FE2C
:1016100060BCB64600260027C0C5C0C5C0C5C0C551
:10162000C0C5C0C5C0C5C0C5403D490849008D46BC
:101630007047000010B500F005F8001D10BD00BF98
:10164000593900000048704738000020F8B51F469F
:10165000044601230068DB02032601461840072ADE
:1016600005DB002801D017A506E017A504E0002837
:1016700001D016A500E016A5102081432160A069C5
:10168000C01E002FA06101D0401EA0612046FEF7C1
:101690003DFE002F09D038466268A1689047206A55
:1016A000401C2062C01C206206E0206AFAE76268E3
:1016B0002878A1686D1C9047761EF8D22046FEF768
:1016C0003BFEF8BD4E414E006E616E00494E460035
:1016D000696E6600F7B516468AB0334878446C46A2
:1016E00003467C33C06F5A689B680DC42E4878440B
:1016F000763003AC0DC80DC43720C001081837215F
:101700001B30FEF7C1FF05460C46803D1B3C02D551
:101710006442012000E000200027099010E0E0076B
:101720000CD00C2020497843794432464C3941187A
:101730006846012300F054FA6B4607C364107F1C0F
:10174000002CECD1184F7F442E3F16E0E80712D052
:101750002001C0190EC80691089307920068F04254
:1017600001D1981908903246012306A903A800F078
:1017700037FA03AB07C36D10641C002DE6D109983E
:10178000002806D032466946012303A800F07EFAFD
:1017900005E001233246694603A800F021FA0A9BBE
:1017A00007C30DB0F0BD0000103C00000346400030
:1017B0000A4610B5400D0BD00121C9070F24A40221
:1017C00000191C0364082143540D2143D20207E091
:1017D00000210120F2E7D40F490021435200401EAE
:1017E0000029F8DADB0FDB07184310BDFFB50D4603
:1017F000144685B04868516803F077FB009101906A
:10180000A868A16803F071FB02910390A868616861
:1018100003F06BFB029A12188242029201D201205D
:1018200000E00020019A0B18D2180028019202D083
:101830008A4202D903E08A4201D2012000E000205E
:101840000099081800906868A16803F04EFB029A9E
:1018500012188242029201D2012000E00020019A77
:101860000B18D2180028019202D08A4202D903E054
:101870008A4201D2012000E000200099081800905F
:101880002868216840004900400849084018FA4982
:10189000471814E001994000C90F084300900198CF
:1018A00002994000C90F0843019002980399400033
:1018B000C90F08430290039840007F1E03900098D0
:1018C0000028E7DA0898002801D0EC4E00E0002656
:1018D000B74201DA012000E00020002804902AD05D
:1018E000F71BF806C00E15D0029B2021091A039A97
:1018F0008B401A430392029A019BC2408B401A43C9
:101900000292019A009BC2408B4000991A430192B7
:10191000C14000917B110DD06F460320C11A03D541
:1019200000218200B95003E08A008100BA587A5041
:10193000401EF3D5374603980299002800D00120B5
:10194000014308980291002808460CD0002800D0D6
:1019500001200199019A490508430121D20AC902CF
:10196000D202019200E001210E9B0122D207012B3D
:1019700002D0002B03D013E0002807D120E09042D2
:1019800004D890420CD1019B0B4209D0019B5918FD
:10199000019105D10099491C009101D17F1C009251
:1019A00000280DD0102108460020C04604980028C9
:1019B00006D00F98002803D0082108460020C04612
:1019C00028682168019B009A4840C10F0598C90703
:1019D00039430EC009B0F0BDFFB587B0099A089829
:1019E0000899536892684068896896460022039374
:1019F00017469446089A12685300099A5B081268C1
:101A0000520052089A1A9E4BD4180A9A002A01D002
:101A1000352200E04022069200220123154604925E
:101A2000DB07059324E0002D05D175460346039E90
:101A30004D1BB34109D375466646039B491B049D64
:101A40009841059B7519AC465F4163463B4308D0FE
:101A5000059B049EDD0776082E435B0804960593DC
:101A600001E0521E641EC50FED0749184041521C8B
:101A7000069B9A42D7DB002D04D17546039A6B1A58
:101A8000824101D203200CE0039A0B466B40424096
:101A9000134303D0014303D0012002E0022000E001
:101AA0000020614601910021009702910A990029C6
:101AB00005D0614640020143704B019102E080076E
:101AC000002302909C4201DA012000E00020070080
:101AD0003AD01A1BD006C00E15D0029D2021019CC1
:101AE000091AC5408C402543029C8C4000D001243B
:101AF0002543019C0295009DC4408D4000992C43D4
:101B00000194C140009154111DD06D460221002264
:101B100002290CD10320001B07E0002804DB86000B
:101B2000AE59002E00D00122401C0328F5DB081B13
:101B300002D588002A5004E08000285810438A000B
:101B4000A850491EE3D51C460A98002802980CD0DC
:101B5000002800D001200199019A4905084301217C
:101B6000D20AC902D202019200E00121109B012297
:101B7000D207012B02D0002B03D013E0002807D19D
:101B80001FE0904204D890420CD1019B0B4209D037
:101B9000019B5918019105D10099491C009101D16F
:101BA000641C009200280CD0102108460020C0467A
:101BB000002F06D01198002803D0082108460020E5
:101BC000C04608980999019A009B00680968484036
:101BD000C10F0798C907214382600AC00BB0F0BD4E
:101BE00000B585B0019300920A460146002302A881
:101BF000FFF7FCFD02A807C805B000BDFFB50A4607
:101C00001F4685B00799019301230091014602A860
:101C1000FFF7ECFD02990398049ECA0F4900D20712
:101C200000920F22490892028C1A0021002800DB42
:101C30000C46450013486D08844214D3079A002AC5
:101C400004DA441E0026104DF64302E004460D4619
:101C50000E46102108460020C046002F03D0042164
:101C600008460020C0462005E90A084300990843B9
:101C70006905F20A1143ADE602C0FFFF013C000016
:101C8000FF3F0000FF070000FFFFFF7F00B585B0AA
:101C9000019300920A460146002302A8FFF79CFE2A
:101CA00002A807C8A8E7FFB50A461F4685B00799EE
:101CB000019301230091014602A8FFF78DFE0299CE
:101CC0000398049ECA0F4900D20700920F224908C8
:101CD00092028C1A0021002800DB0C4645001148B6
:101CE0006D08844214D3079A002A04DA441E0026A1
:101CF0000D4DF64302E004460D460E4610210846FF
:101D00000020C046002F03D0042108460020C04612
:101D10002005E90A0843009908436905F20A1143BE
:101D200058E60000FF070000FFFFFF7F10B50446E4
:101D3000C046C0462046FEF78DFA10BDC80212D537
:101D40004803400F002804D0C803C0430121884045
:101D50007047EFF3008000010009032109070843E1
:101D600080F30088704700207047000010B50248DB
:101D700000F060F810BD00000000C07F0048704710
:101D80001800002082078B079A423FD170B5920F4E
:101D90000AD0032402780B78401C491C002A33D057
:101DA0009A4231D12042F5D1214EF40104C808C92C
:101DB000951B9543254018D19A420FD104C808C9F4
:101DC000951B9543254010D19A4207D104C808C9F4
:101DD000951B9543254008D19A42E7D012BA1BBA09
:101DE00001209A4200D2404270BD12BA1BBA2DBAED
:101DF00018241000E0401900E140401A05D12E00DF
:101E0000E64002D1083CF4D1D01A70BD02780B78BC
:101E1000401C491C002A09D09A4207D102780B784D
:101E2000401C491C002A01D09A42EFD0D01A7047BA
:101E30000101010110B50C461107090F092904D051
:101E40000A290AD008290CD104E011460820FFF71E
:101E500075FF06E0510606D501E0510601D50120C7
:101E6000C007214610BDD10607D501010909CC08DC
:101E70004907000E0006044309E0410F200249070C
:101E8000000A0143200E00061D22D14101430846ED
:101E9000E7E7000001491820ABBEFEE7260002007C
:101EA000704780B501F0DEF8002803D001F080F81B
:101EB00002F015FA80BD80B501F002FA002803D0C7
:101EC00001F0E2F902F058FA80BDEFF3108072B62B
:101ED000FEE70000B0B5044600F0E8F80546601CD7
:101EE00002D093480078041900F0E0F8401BA042AB
:101EF000FAD3B0BDF0B588B00B460968002900D10F
:101F0000B7E002465C48824201D0052000E0032091
:101F10000090012400200546069007460194079290
:101F20000FE03843039F5649086019680846E040AF
:101F3000069E361D0696AD1C0837641C002800D18D
:101F400097E0661E01980596B04001400291ECD0E2
:101F5000039719465B6803261F46049637407E1E8A
:101F6000012E13D8049EAE40079A9268B243CE6801
:101F7000AE401643079A9660DA06D20F059B9A4048
:101F8000079B5B6883431343079A5360032F0B46F9
:101F9000049E1ED03046A840079AD26882439868B3
:101FA000A8401043079AD060022F12D11C20069A35
:101FB00010400F268640059AD2089200079B9A1877
:101FC000136AB3430E6986401E430B461662049E95
:101FD000079A3046A8401168814358688203304010
:101FE000A840084307990860900F079A039F9CD068
:101FF000182139400F208840059FB7431F4EF6191E
:10200000376E874360360520000782420AD01D489C
:10201000824205D01C488242009804D1022002E08E
:10202000012000E0002088403843306013480068F9
:102030005E68F10202D5029F384301E0029FB84377
:102040000E4908604868B10201D5384300E0B84342
:102050000A4948600A484068B10301D5384300E0A6
:10206000B843074948600868F10300D559E7B84309
:1020700058E708B0F0BDC046000C00500018024000
:1020800080180240000400500008005042690B46CE
:1020900093430A401104C91881617047002A02D095
:1020A00018228150704728228150704705480068E7
:1020B0007047C0461E48007802490A681018086038
:1020C0007047C0461C02002010B501242002F249CE
:1020D0000A6802430A60032000F00AF8002801D0D1
:1020E000204610BD00F026F80024204610BDC04652
:1020F000B0B505460E4801780124002916D07D2090
:10210000C00002F0F7FD0146E648006802F0F2FD6B
:1021100000F042FF032D09D8002807D10024E04336
:102120002946224600F01CF8DF4805602046B0BD75
:102130000E00002082B0094841680122114341602D
:102140004168114001910199110702680A43026038
:10215000006808400090009802B070473C100240B0
:1021600080B502F075F880BDF0B581B00325690235
:102170006E4E32688A430243326001214A020024D3
:10218000904212D1C7480268706940050DD58F0290
:1021900006205043064902F0ADFD801C401E03D0CE
:1021A00071693942FAD100E02C46204601B0F0BDF9
:1021B00040420F00F0B587B00646807880075A4F3E
:1021C00001D400253EE0059601221107203F386822
:1021D0000840049006D138680843386038680840E1
:1021E0000690069802970391019216024F4C2068C0
:1021F00030432060FFF75AFF05462768374006D175
:10220000FFF754FF401B0328F7D3032500E0002508
:10221000059E002F01D1444F0CE003242102424FC0
:102220003868084055D07269904256D1C00761D1D4
:10223000002D70D00498002804D1029A10680399E8
:10224000884310603068C10707D0394608390A68EA
:1022500003239A43736813430B60810608D5032157
:1022600009033A46083A13688B43B1681943116071
:102270000121420417D53A46083A13682D4C2340F1
:102280000C4629463546366933431360294A521CA9
:1022900096422E460D46214605D10A043B46503B48
:1022A0001C6814431C60000510D5880303229203A8
:1022B0003B46083B1C689443F26814431C6082420E
:1022C00004D10804503F396801433960284607B0FB
:1022D000F0BD0020C007ABD00CE03868019A1204B2
:1022E0003B6813433B603B6893433B6088433860E3
:1022F000C0079DD00194FFF7D9FE06460C4C386804
:10230000800705D4FFF7D2FE801BA042F7D3019DC2
:10231000059E002D8ED1032000023968814370692B
:1023200008433860002585E75C10024000700040DB
:1023300089130000FFFFFF3FF0B583B00D46012178
:10234000002800D1A5E001910290534800680724BD
:102350002040A84214D250490868A043284308608E
:102360004E4EFFF7A3FE07464B4800682040A842A8
:1023700006D0FFF79BFEC01BB042F5D9032188E0D1
:10238000029B18688107684E0CD5410703D52103CD
:1023900032680A4332600F21090232688A43996821
:1023A00011433160C00719D13B4800682040A84262
:1023B00029D939490868A04328430860374FFFF7F7
:1023C00075FE0646344800682040A8421BD0FFF73F
:1023D0006DFE801BB842F5D903215AE058680328E6
:1023E0002FD8810001A251584F4A8F46FD23000883
:1023F00049240008532400085D24000811460839C8
:10240000096849052CE0029A10784007464D05D529
:10241000200329688143D0680843286000F046F80B
:10242000296889093C220A401D4989581F220A400F
:10243000D0401C4908601C480068FFF759FE01465F
:1024400027E0394A516D0AE01146083909688903C5
:1024500006E0114608390968890101E0916D890794
:10246000019916D51168A143014311600B4FFFF785
:102470001DFE06462C48006838210140029840683D
:10248000C000814290D0FFF711FE801BB842F1D905
:102490000321084603B0F0BD00200240881300006D
:1024A00084530008000000201000002010B51E4CCE
:1024B00020688006400F06D0226838210A401B4859
:1024C000082A07D110BD083C20688004410F184835
:1024D000C84010BD22680A40102A15D16168032245
:1024E0000A40032A00D0124861684906490F491C76
:1024F00002F000FC61684904490E48436168490FD5
:10250000491C02F0F7FB10BD20680840202802D1CA
:102510000120C00310BD20680840182801D0002009
:1025200010BD7D20000210BD0810024000127A008C
:102530000024F400F0B587B00127002800D1F8E1AD
:10254000049705900078C007FD4E2CD105980078BF
:1025500080074CD40598007800070DD5B068382165
:102560000140182900D0A6E0306E800704D50598F8
:102570008069002800D1E1E105980078400700D487
:102580005FE1B06838210140202900D0AAE0F06D59
:10259000800700D452E105988068002800D04DE102
:1025A000002001274BE1B068F16803273A468A43CF
:1025B00038210140102048408218504250410829DB
:1025C00045D0002843D10598426805200004824286
:1025D000039200D1B8E0012001048A4200D1B9E0A1
:1025E00032688A433260810430688843B4E0B1685D
:1025F0003820084010214140F26803273A40022366
:102600005340CA185142514100282BD0002929D1EA
:10261000306801218C02059BDA68002A00D1B8E0FD
:102620000722D20290431A690243326008023168DD
:1026300001433160FFF73AFD05463068204200D083
:10264000B7E0FFF733FD401B0228F6D971E130688F
:10265000800300D47AE705984068002800D075E729
:10266000049F66E131684905059B03D5D9680029B7
:1026700000D1B9E07F21090272688A4359690902D1
:102680001143716000280DD10720C00231688143D9
:1026900018690843306030688004400FAB49C1407E
:1026A000AB480160AB480068FFF722FD002800D16D
:1026B00050E7049F3DE1306E05998969002900D1FA
:1026C00081E0012108433066FFF7F0FC0546306EDB
:1026D000800700D550E7FFF7E9FC401B03270228DD
:1026E000F5D926E1012003900107F06B0840029024
:1026F00006D1F06B0843F063F06B08400690069833
:102700000191954C2068C00510D4039807022068F9
:1027100038432060FFF7CAFC05462068384205D1DF
:10272000FFF7C4FC401B0228F7D975E005988468C0
:10273000052C5BD0012C5DD0F06D03998843F065CA
:10274000F06D0421884358E00120810432680A4377
:102750003260010430680843306001204404FFF710
:10276000A5FC0546039800280FD03068204200D011
:10277000ECE6FFF79BFC401B6428F6D9D9E0FFF795
:1027800095FC401B642800D9D3E030682042F6D184
:10279000DCE6090288433060FFF788FC05463068B4
:1027A000204200D1D6E6FFF781FC401B0228F6D973
:1027B000BFE07F20000271688143059840690002F4
:1027C00008437060C6E6012188433066FFF76EFC5F
:1027D0000546306E800700D4CEE6FFF767FC401B4D
:1027E00003270228F5D9A4E0049FA2E0F06D04219C
:1027F0000143F165F06D03990843F065574FFFF70A
:1028000055FC0546002C0FD0F06D80070FD4FFF764
:102810004DFC401BB842F7D9002003270FE0FFF71B
:1028200045FC401BB842F7D8F06D8007F7D40298FA
:10283000002803D1F06B01998843F0630120002840
:1028400077D00598C469002C72D0B0683821014057
:10285000102903D1012C18D1049F6AE00127390601
:102860003068049188433060FFF720FC0546022C55
:102870002CD103977C063068204232D0FFF716FC3B
:10288000401B03270228F6D953E0F06803210140DA
:10289000059B1A6A91424FD1702101405A6A9142B8
:1028A00050D17F21090201409A6A120291424BD114
:1028B0001F2149040140DA6A9142049F39D107215E
:1028C00049070840196B884233D131E07C063068F3
:1028D000204229D0FFF7EAFB401B03270228F6D944
:1028E00027E0F0681F490140059F2037ADCF08431E
:1028F00010431902014329433943F16030680499B8
:102900000843306003980007F1680143F160FFF766
:10291000CDFB0546306820420AD1FFF7C7FB401BBC
:1029200003270228F6D904E0F0680D490140F16060
:102930000027F8B207B0F0BD049FFAE7049FF8E75C
:1029400000100240049FF4E7049FF2E70024F40023
:1029500000000020100000200070004088130000DC
:10296000FCFFFEEF8C80C11FF0B585B000280CD0B5
:10297000044605465C3541208600606A002807D081
:10298000002020612046143007E0012005B0F0BD92
:102990006068B04203D020461C300021016000274F
:1029A000A7626878002804D100202870204600F033
:1029B00057F8022004950190687020680168402251
:1029C000914303900160E168F34A012591422A4650
:1029D00000D33A461203ED020D430F27380202904E
:1029E000854201D00025A5626568A768354021238E
:1029F0009B023B405B192569019805401D436069B6
:102A0000012318402843FC36A7693E400643E0698D
:102A1000382505403543206A802606402E4358035A
:102A2000A56A05403543039E3560380C04250540F2
:102A3000029801400A432A43606A10210140114371
:102A4000606B082202400A437260D802F169814338
:102A5000F1610020206604994B7005B0F0BDC046BE
:102A600010B586B000210591049103910291019166
:102A70000068124A904201D006B010BD0120020346
:102A80000F4BDC681443DC60DC6814400094009A4F
:102A90001A6802431A601A68024000920591049174
:102AA000039102200290E020019005200007009988
:102AB00001A9FFF71FFA06B010BDC0460030014063
:102AC00034100240F0B585B004465D20205C2746F6
:102AD000443701280ED115460E464120800061681A
:102AE000814202D1A06800286AD0387E012807D12F
:102AF000022502E0022500203876284605B0F0BD08
:102B00000495039301253D76FFF7D0FA0290002E3D
:102B1000F1D004990029EED00420787600222266B4
:102B20007980E28726643980A287A263E264226505
:102B300007200002E1680123049081421D4600D96C
:102B400015462A031D0326687068A8438018706024
:102B5000D803A268824209D12068026840239A43C0
:102B600002600122920303689343036022681068A5
:102B70004006039D029E03D4106840230343136064
:102B80007A880498401C814225D2002A0CD124E086
:102B9000007B216C0870206C401C20647888401EEB
:102BA00078807888002818D020688168C907EFD11C
:102BB000FFF77CFA691CF4D0801BA842F1D330E007
:102BC0000420787600932046314632462B4600F0AA
:102BD000E5F8054691E7002A18D1204629463246F5
:102BE00001F040F9002801D020202066206E002846
:102BF0001BD001257FE7216CC0680880881C2064F9
:102C00007888401E788078880028E6D0206881681F
:102C1000C907F0D1FFF74AFA691CF4D0801BA8421B
:102C2000F1D301207876032565E701207876002529
:102C300061E70000F0B587B0059305465C20285C8D
:102C4000012801D102244CE0164603912F46443757
:102C500001243C76FFF72AFA0490787E01283DD1C2
:102C6000039900293BD0002E39D0032001907876BB
:102C700000202866EE87AE87A96328643880E86460
:102C80002865029078800124E003A968814209D177
:102C9000286801684022914301600121890302688C
:102CA0000A43026028680168490603D4016840228B
:102CB0000A43026069684A424A41731E59425941B7
:102CC0001143EA68B34B9A420ED30029059E14D0F3
:102CD000A96B0988C1600398801C0AE002240020C7
:102CE0003876204607B0F0BD0029059E24D0039910
:102CF0001AE0A863E88F401EE887E88F00282FD0ED
:102D00002868816889070AD4FFF7D0F9711CF4D0CC
:102D10000499401AB042F0D3012078761CE0A96BE8
:102D20000A88C260881CE4E709780173A86B401C1C
:102D3000A863E88F401EE887E88F002810D0286835
:102D4000816889070AD4FFF7B1F9711CF4D004999E
:102D5000401AB042F0D37C76019CC0E7A96BE3E750
:102D600028463146049A01F0BEF8002801D0202000
:102D70002866A868002807D1002006902868C16846
:102D80000691806806900698286E0028A7D1012039
:102D90007876029CA3E7C04601070000F0B585B035
:102DA00004465C20205C012802D1022005B0F0BD61
:102DB0001D46029203912746443701263E76FFF7CF
:102DC00075F90490797E01297AD10398002800D101
:102DD000CFE00298002800D1CDE0002D304600D190
:102DE000D3E0787E042801D005207876002323667E
:102DF0007D80E587E168674A01200191914206469E
:102E000000D31E46360302032068416891438919A6
:102E10004160029921643D800399A163E3642365C5
:102E2000A5870168490603D4016840220A4302606D
:102E30000A9E61684A424A41691E4B424B41134314
:102E40000199544A914247D3002B08D0A16B0988BD
:102E5000C1600398801CA063E08F401EE0870125BD
:102E6000E08F002802D17888002877D02068816818
:102E700089070DD5E18F012D0AD1002908D0A16B5A
:102E80000A88C260891CA163E18F491EE187002581
:102E90008168C9070BD07988002908D0216CC068E7
:102EA0000880881C20647888401E78800125FFF700
:102EB000FDF8711CD4D00499401AB042D0D349E037
:102EC000412082006368022093425ED104295CD1D4
:102ED000A168002959D178E7002B08D00399097817
:102EE0000173A06B401CA063E08F401EE0870125AA
:102EF000E08F002802D1788800282FD020688168D0
:102F000089070ED5E18F012D0BD1002909D0A16BC6
:102F100009780173A06B401CA063E08F401EE0871E
:102F2000002520688168C9070CD07988002909D05C
:102F3000007B216C0870206C401C20647888401E47
:102F400078800125FFF7B2F8711CD1D00499401A9E
:102F5000B042CDD301207876032016E020463146DA
:102F6000049A00F0C0FF002807D02020206601202E
:102F700004E0304609E0304607E00020216E0029D9
:102F800001D0012001E0012179760021397605B0D8
:102F9000F0BDC0460107000080B501F09BF880BD80
:102FA000FEE7000001204003314908607047C04639
:102FB0002F481021016070470548016804229143A1
:102FC0000160704702480168082291430160704720
:102FD0000424014081480168814A0A40511C016073
:102FE0007047C0467D480168084A0A400121090728
:102FF000511801607047C04678480168034A0A408A
:1030000001210907511801607047C046E8FFFF6FB2
:10301000B0B50D46044600F037F8002801D0012075
:10302000B0BDE0680849014068680843A9680143E9
:10303000E8680843E060032080072169814328682D
:10304000084320610020B0BDC73FFFFF084801686A
:10305000012008407047C046054800688004C00F42
:103060007047C04602480068C006C00F7047C0469F
:103070000024014059480068C00F70475748006855
:103080008007C00F7047C046816801200840704724
:1030900052480168012008407047C0462D48016829
:1030A000032008407047C04601214905C068084018
:1030B0007047000070B50D460446FFF7F5FF204647
:1030C000FFF7F2FF2046FFF7DFFF002802D00126BE
:1030D000304670BD2046FFF7E7FF1249002807D0B1
:1030E0006868F02804D1E2680A402868104305E0C7
:1030F000E068084029680143A86808432B460C3360
:103100000ECB014311431943E1602046FFF7CCFF8A
:103110000026002803D06968204600F01DF83046DC
:1031200070BDC0463CC2FEFF2C4800684007C00F7F
:103130007047C04607490A6803239A4302430A605E
:103140007047C0460120400502490A6802430A60F0
:103150007047C0460C240140826A0A43826270476D
:10316000024801680F229143016070472824014002
:103170001A4801681A4A0A40111D01607047C0468A
:10318000012000020B490A6882430A607047C0466A
:103190000D480168012291430160704704210140FC
:1031A0000520884007228A4002490B689343034365
:1031B0000B607047142401400120400702490A684F
:1031C00082430A607047C0461024014003480168EA
:1031D000034A1140891818310160704708240140E2
:1031E000E8FFFF7F81B005480168012211430160BB
:1031F000006810400090009801B0704738100240FD
:1032000081B00120400405490A6802430A60096848
:1032100001400091009801B07047C0463C10024048
:1032200081B00120000513490A6802430A60096859
:1032300001400091009801B07047C04681B0012064
:10324000C0020C490A6802430A6009680140009103
:10325000009801B07047C04681B001208003054945
:103260000A6802430A60096801400091009801B0B1
:103270007047C046401002405148016805220A4389
:103280003A218A43026070471F482021016070473D
:1032900010B51C4C205C0D4C0019102B03D1C160E3
:1032A0000830026010BD81600C30026010BDC04665
:1032B0001449085C054942580123134343507047A1
:1032C000024800688006C00F7047C04600000240F8
:1032D0000320000340490A6882430A607047C046E1
:1032E0000320000341490A6882430A607047C046D0
:1032F00010B5044A105C044A8358044C1C400C432B
:10330000845010BDE4530008040002400000FFFF99
:1033100031480168054A0A40026070473348016835
:10332000024A0A40103202607047C046EFBFFFFFFA
:103330002948016880220A43026070472B480168CF
:1033400080220A43026070470320800222490A68F3
:103350008243012080021018086070470320800219
:1033600022490A6882430A607047C0461A480168C9
:1033700020220A43026070471C48016820229143C2
:103380000160704714480168402291430160704712
:103390001648016840229143016070470348016864
:1033A00005220A433A218A4302607047000802401E
:1033B0000348016833220A430C218A4302607047A4
:1033C000040802400320000203490A6882430120E6
:1033D0000002101808607047080002400320000235
:1033E00002490A6882430A607047C0461C000240D6
:1033F000F0B581B005460868002833D00C46002798
:103400000EE062692846314600F039F862682846C5
:10341000314600F03FF87F1C20680146F94021D07A
:103420000126BE400640F6D06068401E012809D83B
:10343000A2682846314600F045F8E2682846314641
:1034400000F031F822692846314600F032F8606811
:103450000228DBD1FF2ED4D862692846314600F01D
:1034600004F8D3E7002001B0F0BD494349434A4383
:103470000F234B43016A9943114301627047090AC4
:10348000494349434A430F234B43416A99431143FC
:103490004162704749434A4303234B4301689943C0
:1034A0001143016070474A4343688B4313434360B1
:1034B000704749434A4303234B43C168994311432F
:1034C000C160704749434A4303234B438168994392
:1034D000114381607047000081B00B4801680122F0
:1034E00011430160006810400090009801B07047DF
:1034F00081B005490A6802430A60096801400091E9
:10350000009801B07047C046341002400F200102FD
:103510000748006808407047072001030448006816
:103520000840704702480168382008407047C0468C
:103530000810024010B5044600F058FC206000F06E
:1035400035FC606000F042FCA06010BD80B503282F
:1035500018D100F02BF81149884208D01049884250
:103560000CD0104988420FD100F040FC80BD00F023
:103570002FF8401E41424141C80380BD00F020F8B1
:10358000012808D0002080BD00F030FC00F00EFCC7
:1035900000F01CFC80BD044880BDC0460300030051
:1035A00002000300010003000024F4000348006847
:1035B00003210840090440187047C04654100240D7
:1035C000024800684005C00F7047C0460010024026
:1035D000024800688007C00F7047C0465C10024078
:1035E0000B480168702008407047C04608480168D1
:1035F000032008407047C046054800684004400E5C
:103600007047C046072041070148006808407047DE
:103610000C1002400120C0433F4908607047C0467B
:103620000120C0433C4908607047C0463F480168DC
:1036300080229143016070472E48016880220A432E
:10364000026070472B48016801220A4302607047FC
:103650000248016801220A43026070470C2C0140B5
:10366000416901220A4342617047000070B50D466E
:10367000044601681F4EB04202D01F48844204D164
:10368000702081436868084300E008461B498C426B
:1036900008DDB4420CD01A498C4209D019498C4239
:1036A00006D024E014498C4202D017498C421ED126
:1036B000032109028843E96801432160A968204683
:1036C00000F02CF82988204600F034F8B44205D0E8
:1036D0000B48844202D00B48844203D1296920461A
:1036E00000F02AF82046FFF7BBFF002070BD01461E
:1036F000E3E7C046002C014000040040FF2B0140DE
:103700000048014000440140002000400248016898
:10371000012008407047C046102C0140C16270472C
:1037200002480168024A0A4002607047082C0140C2
:10373000F8BFFEFF81627047016370470648016869
:1037400070229143016070470F20000502490A680A
:1037500082430A607047C046042C0140014808219A
:1037600001607047204400400921C90242688A4331
:10377000426081682A22914381607047012040079E
:1037800030490A6882430A607047C04601680122D6
:103790000A43026070470000EFF31080012181F3BB
:1037A000108827490A68202313430B6080F3108890
:1037B0007047C04670B584B00D46044600F058F816
:1037C000002801D0012635E020681C490140A86886
:1037D00008432969014368690843E9690143216095
:1037E000E968204600F0AEF8A969204600F08EF89E
:1037F0001348844207D01348844209D10320FFF7BD
:10380000A5FE014605E001A8FFF794FE039900E03C
:1038100000210126002909D06868002806D0EB693C
:103820002A680090204600F031F8002629682046DA
:1038300000F073F8304604B070BDC046F369FFEF86
:103840000044004000380140C0694002C00F70478A
:10385000C0698006C00F7047C0694006C00F70473E
:10386000C0698002C00F7047C0690006C00F704772
:10387000016801200840704700688006C00F70474B
:1038800001480068C0B270472444004070B50B2A5C
:1038900021D81E460446049DD0B280000EA21258C4
:1038A0000846114601F026FA0121C9038E420BD1C8
:1038B000690840004018294601F01CFA12490140ED
:1038C0000007400F401805E069084018294601F03C
:1038D00011FA80B2E06070BD01000000020000003B
:1038E0000400000006000000080000000A000000BC
:1038F0000C0000001000000020000000400000004C
:103900008000000000010000F0FF0000032212020E
:10391000836893430B4383607047C26A0F239A43C3
:1039200089B21143C1627047EFF31080012181F326
:103930001088072149060E4A13688B43136080F3F1
:103940001088704703221203436893430B4343607C
:1039500070470000EFF31080012181F310880721E8
:103960004907034A13688B43136080F3108870473C
:10397000083801408162704781B008490A680092A6
:10398000401C01D30020C043009A002804D00A68DC
:10399000D203D2171018FAD101B0704710E000E03E
:1039A000F0B591B0002410940F940E940D940C94E3
:1039B0000B940A940994089407940694059404942B
:1039C000039402940194FFF72BFCFFF785FD059407
:1039D00003260296012701970520000701A9FFF79A
:1039E00007FDFFF7DBFCFFF793FCFFF771FCFFF728
:1039F000BDFCFFF7C7FCFFF79BFCFFF7E3FCFFF7FD
:103A0000A3FC00F0FDFB00F0DFFB10940F940E947C
:103A1000B8070D90164D0DA92846FFF7F9FAFFF7E4
:103A200091FBFFF719FB0028FBD0FFF7BBFA0C94C2
:103A30000B9678030A90F0200890079407A928466F
:103A4000FFF738FBFFF7A4FBFFF7B6FB2046FFF7B5
:103A5000A5FB0848FFF7A2FBFFF7AEFAFFF7B2FAA3
:103A6000FFF7C0FAFFF77CFBFFF78AFB11B0F0BD50
:103A70000024014004FFFF0780B5FFF7B3FB00F00F
:103A8000C5FB00F0A7FB80BDF0B589B00024089409
:103A900007940694059404942A480168022202922D
:103AA00011430160016811400391039901680422E8
:103AB00011430160016811400391039901680125D8
:103AC0002943016000682840039003980320019077
:103AD00087031D4839462246FEF7E0FA052006070F
:103AE0001A4930462A46FEF7D9FA079406940595F6
:103AF000049704AF14483946FEF7FCF9069505947F
:103B00000298049030463946FEF7F4F90198079080
:103B1000069405950D48049030463946FEF7EAF9BB
:103B20000694059404956E483946FEF7E3F9069429
:103B30000594E802049030463946FEF7DBF909B0F7
:103B4000F0BDC046341002400008005010100000C4
:103B5000B0B50F480822002107230162416281624B
:103B6000C3620163426310220A4C1B024125AD006F
:103B700030C0FC35016043608160C1600561426115
:103B80000838FEF7F1FE002801D0FEF79EF9B0BD1F
:103B9000300100200030014010B586B000240594AB
:103BA0000494039402940194FFF748FB00F038FB5F
:103BB00000F016FB01A93F20088005940494FF2023
:103BC000F430039002940748FFF750FDFFF734FDEF
:103BD000FFF7A6FDFFF7B2FDFFF7B6FDFFF726FDE5
:103BE00006B010BD002C0140F0B595B00027149729
:103BF00013971297119710970F970E970D970C9791
:103C00000B970A97099708970797069705970497C0
:103C1000039702970120019001A8FEF7CBFA002834
:103C200001D0FEF752F9FFF717FB02242046FFF7F9
:103C30005FFC09970894802007900A970B970C97D0
:103C4000274D07AE28463146FFF7D2FB0997089467
:103C5000402007900A970B970C9728463146FFF7AC
:103C6000C7FBFFF7A5FBFFF759FBFFF739FBFFF792
:103C700083FBFFF78DFBFFF761FBFFF7AFFBFFF760
:103C80006DFB1B24204600F0D5FA204600F0AEFA6A
:103C9000149713970C201290119710970F971148B3
:103CA0000E900D97104C0DA92046FFF783FDFFF7EE
:103CB00051FEFFF739FEFFF761FD2046FFF754FD87
:103CC0002046FFF763FD2046FFF7CAFD0028FAD023
:103CD0002046FFF7B9FD0028F5D015B0F0BDC0466D
:103CE0000004005040420F0000380140F0B58FB092
:103CF00000270E970D970C970B970A97099708972F
:103D00000797069705970497039702970197FFF780
:103D100077FA01242046FFF7EBFB069405970497FA
:103D200003970220009002900420019005200507CF
:103D300001AE28463146FFF75BFB069405970497D2
:103D40000397009802900820019028463146FFF71B
:103D50004FFB1C24204600F06DFA204600F046FA86
:103D60000E970D970C200C900B970A970997E1205E
:103D70004002089007970B4C07A92046FFF71AFD51
:103D80002046FFF7F1FC2046FFF700FD2046FFF735
:103D900067FD0028FAD02046FFF756FD0028F5D031
:103DA0000FB0F0BD00440040FEE7704710B5044678
:103DB000FFF7ACFB80093C210140034840581F211C
:103DC0000140CC40204610BD8453000810B5044685
:103DD000FFF7A2FB000B8000034908581F21014098
:103DE000CC40204610BDC046C453000880B5FFF744
:103DF00099FB082804D0102804D100F00DF880BDEC
:103E0000164880BD034800688004410F1448C8402C
:103E100080BDC04600100240B0B5FFF7E7FB104D73
:103E2000032803D02946022804D002E00B490228C7
:103E300000D00D46FFF7E0FB04466C43FFF7D0FBD4
:103E40000009411C204600F055FF0446FFF7DAFB4D
:103E5000400F411C204600F04DFFB0BD00127A001B
:103E60000024F400F0B581B017460E460446412008
:103E700085006068A8420CD1A0680121CA03904265
:103E800002D08902884204D120680168402291430F
:103E90000160204631463A4600F0BEF8002805D0C1
:103EA000206E202101432166032719E03B4660680C
:103EB0000027A84214D1A0680121CA03904202D071
:103EC000890288420CD1032569022046324600F05F
:103ED00031F8002804D0206E2021014321662F46AE
:103EE000384601B0F0BDF0B581B016460F46054624
:103EF0000324E1023A46334600F01CF800280FD1B3
:103F000028463946324600F087F8002808D10320B9
:103F1000410228463A46334600F00CF8002806D005
:103F2000286E202101432966204601B0F0BD0024FF
:103F3000FAE70000F0B589B01E4614460F4602901D
:103F400007A800250570FEF7B1F8301A0694041989
:103F5000FEF7ACF8029A04905C48006823214143C4
:103F6000080D0594604308901068039080683842FB
:103F700026D010465C30019003E01068806838421B
:103F80001CD003267002874204D10398007B07A946
:103F9000087007980698401CEFD01446FEF786F884
:103FA0000499401A059988420CD208980899491E2C
:103FB000089100282246E0D10590DEE72E4628E051
:103FC0002E4626E0234620684168E0229143416066
:103FD0004121890062688A420CD199680122D30389
:103FE0009942234602D09202914203D101684022B5
:103FF0009143016001214A039B6A934205D1036802
:10400000934303600368134303600020019A107018
:104010005170304609B0F0BDF0B583B016460D467C
:104020000446FEF743F8301A4719FEF73FF80646F4
:10403000264800684001000D78430290206880689F
:1040400000210191000602D4019803B0F0BD204682
:104050005C30009003E0206880680006F4D5681C9E
:10406000F9D0FEF723F8801BB84207D202980299D4
:10407000491E02910028EED10746ECE7206841680E
:10408000E022914341604121890062688A420BD15C
:10409000A1680122D303994202D09202914203D136
:1040A000016840229143016001214A03A36A9342BF
:1040B00005D1036893430360036813430360002042
:1040C000009A10705170032003B0F0BD0000002072
:1040D00070470000B0B5401E010E01D00120B0BDF8
:1040E000054D68600024E043032100F0B1F8AC60A6
:1040F000072028602046B0BD10E000E080B5FDF745
:10410000D9FF80BDF0B591B004AC34212046FCF756
:10411000ABFA0026039602960196009601277802D4
:10412000FEF722F87807109078040F9008200E9080
:104130000D9602250C950B954020099008963802A3
:10414000079004952046FEF7F5F900280CD1039658
:10415000029607200090019568462946FEF7ECF884
:10416000002801D111B0F0BDFDF7AFFE704780B55A
:10417000FFF7CCFA012803D1FFF74CFA00F002FD5B
:1041800080BD000010B57B4C2046FFF761FB002886
:1041900006D02046FFF770FB002801D000F0CCF8D5
:1041A00010BDC04610B5074C2046FFF751FB002854
:1041B00006D02046FFF760FB002801D000F0CAFAC5
:1041C00010BDC04600440040012000030B490860B8
:1041D0007047C04601208002084908607047C04609
:1041E00001204003054908607047C0461F21014077
:1041F00001208840014908607047C04600E100E0A6
:104200000B480168FF22914301607047FF200004C2
:1042100002490A6882430A607047C04608E400E029
:10422000FF20000202490A6882430A607047C046C4
:104230000CE400E0C0B28107C90EFF228A40134996
:104240004018032188430168914301607047C046CC
:10425000002805D40322034693430C4A9A1806E02B
:104260000F220240083A03239A43074BD2188007D3
:10427000C00E8901C9B28140FF2383401068984372
:10428000084310607047C0461CED00E000E400E009
:1042900080B582B000200190FEF7FAFE00281CD104
:1042A000FEF7AAFE0120FFF767FBFEF7F7FE01907D
:1042B0000020FEF73FFFFEF789FFFEF7DBFE002838
:1042C000FBD10198FEF736FF0120FFF755FBFEF703
:1042D00081FEFEF7BBFE0028FBD002B080BD704718
:1042E00010B5FEF7D5FE0024012803D1FEF7C6FE67
:1042F000002801D0204610BDFEF716FF0028F9D196
:10430000FEF736FF0124204610BD000070B50C46B4
:104310000546FEF7B1FF0749002630462A463346D8
:10432000FEF7B6FF30462146FEF7E2FF3046FEF7C5
:10433000BFFF70BD4024014070470000F0B581B060
:104340000C4C00290FD00D46064600272046FFF7EB
:104350008BFA0028FAD031782046FFF70BFB7F1C40
:10436000761CAF42F2D12046FFF776FA0028FAD049
:1043700001B0F0BD003801407047000080B507482B
:104380000088FCF74FFB064900F08CFE0549FCF75E
:104390006DFA014600F016FE80BDC0467800002090
:1043A0003333534000F07F45FDF78EFEFFF7AAFE42
:1043B000FFF76AFBFFF760FBFFF7CAFBFFF714FC90
:1043C000FFF794FCFFF7ECFAFFF7E6FB00F0EEFBDB
:1043D00000F068FCFCE700000148006840087047F6
:1043E0001402002010B5AA2809D0F02817D11649C8
:1043F0000870144800210170012108461EE0114A8E
:104400001378072B14D1002414700F4AD071104672
:1044100000F01CF8002800D10424204610BD0949F2
:104420000978062906D8084A5054491C012005E09D
:10443000022002E0072903D003200021014A117065
:10444000C0B210BD900000208000002070B50C4666
:1044500006460078F02823D17078052820D1F0791D
:10446000AA281DD101252570FFF7B6FF6060B0783E
:10447000F178090208182081307971790902081849
:104480006081B1792173FF22D2430A43626180B215
:10449000FCF7C8FA0449FCF7E9F92061284670BD29
:1044A00000252570284670BD0000C842B0B5A64D55
:1044B00000242C7206480749296068602846FCF7EA
:1044C00093F881B2284600F057F92046B0BDC046A7
:1044D0004C4C0D0A41542B4110B50346074C80212A
:1044E00007A22046FBF7F4FE2046FCF77DF881B2D8
:1044F000204600F041F9002010BDC0469400002085
:1045000041542B4D414444523D253034580D0A004E
:1045100010B5012804D0002813D18B483B4901E095
:1045200089483C49084A094B036042608160864CD7
:104530002046FCF759F881B2204600F01DF9002012
:1045400010BD012010BDC0464F44453D41542B4D88
:1045500010B5014632390C4A914201D9012010BDF3
:104560000A2100F0C7FBC3B2084C802108A22046F4
:10457000FBF7AEFE2046FCF737F881B2204600F08C
:10458000FBF8002010BDC046B603000094000020D8
:1045900041542B504552494F443D25640D0A0000BB
:1045A00010B50346074C802107A22046FBF790FE7A
:1045B0002046FCF719F881B2204600F0DDF8002013
:1045C00010BDC0469400002041542B5049443D2565
:1045D000640D0A0010B5012804D0002813D15A48F0
:1045E0000C4901E058480949094A594B03604260A7
:1045F0008160554C2046FBF7F7FF81B2204600F062
:10460000BBF8002010BD012010BDC046300D0A00CF
:104610004F4C453D310D0A0010B582B0022802D939
:10462000012002B010BD03460091084C802108A271
:104630002046FBF74DFE2046FBF7D6FF81B2204611
:1046400000F09AF8002002B010BDC046940000208F
:1046500041542B534144445225643D253034580D78
:104660000A00000010B50346074C802107A220462F
:10467000FBF72EFE2046FBF7B7FF81B2204600F085
:104680007BF8002010BDC0469400002041542B5000
:1046900057523D25640D0A0070B506460025284690
:1046A000FFF736FF64242046FDF714FC0120FFF7D6
:1046B00091FF2046FDF70EFC00F034F82046FDF790
:1046C00009FC2846FFF724FF2046FDF703FC0420E1
:1046D000FFF7C8FF2046FDF7FDFB2846FFF760FF08
:1046E0002046FDF7F7FB3220FFF732FF2046FDF7AB
:1046F000F1FB3046FFF7F0FE2046FDF7EBFB2846C6
:104700002946FFF789FF2046FDF7E4FBFFF7CEFEC1
:104710002046FDF7DFFB00F005F82046FDF7DAFB49
:1047200070BD0000B0B5084D00242C720748084940
:10473000296068602846FBF757FF81B2284600F0E1
:104740001BF82046B0BDC0469400002053540D0A0B
:1047500041542B5280B5FFF793F80549FFF742FE0D
:10476000002800D080BD03480121017080BDC046F3
:10477000140100202C01002080B500F007F880BD56
:1047800080B5FEF7EBFFFFF707F880BDF0B581B00D
:104790000C4C00290FD00D46064600272046FFF797
:1047A00063F80028FAD031782046FFF7E3F87F1C41
:1047B000761CAF42F2D12046FFF74EF80028FAD01F
:1047C00001B0F0BD00440040F0B585B05A20C043B0
:1047D00003A9087100911648039001AD00242C71C3
:1047E00001941026052730463A4600F071F930460C
:1047F00029463A4600F0D2F8287800990A78012133
:104800008242084611D10122164625463346042D20
:10481000104600D32046032D07D801ADED5C03AE52
:10482000F75C5E1CAF421D46F0D0484005B0F0BDBD
:10483000A5A5A5A570B500F015F806460520040746
:104840001025002220462946FDF728FC272000F0ED
:10485000DBF8304600F0D8F8012220462946FDF763
:104860001DFC70BD70B505200407102500222046F0
:104870002946FDF713FC072000F0C6F80646012282
:1048800020462946FDF70AFC304670BDF0B585B0DC
:1048900003900124FFF798FF0028049414D1002608
:1048A00031A53746284600F051F90A20FDF712FBE2
:1048B000042F01D3344600E00124042F50D27F1C82
:1048C000FFF782FF0028EDD0052528070290049EFF
:1048D0003103019100273A46FDF7E0FB3046FDF732
:1048E000F9FAFFF7A7FF1C20314600F013F91D204D
:1048F000072100F00FF90A21384600F00BF9304685
:10490000314600F007F90220314600F003F9032098
:10491000014600F0FFF80420FF2100F0FBF806201C
:10492000262100F0F7F81B48294600F0C6F81A497E
:1049300038462A4600F0A0F8304600F0AAF83C209D
:1049400000F074F8284600F087F8039800F075F836
:10495000029801993246FDF7A1FB3046FDF7BAFAFD
:10496000204605B0F0BDC046736932347231206311
:104970006F6E6E656374696F6E20636865636B202C
:104980006661696C65642E2072657472792E2E2EB4
:104990000D0A00000900002004000020F0B583B0DB
:1049A00002920191064605200407102500272046A3
:1049B00029463A46FDF772FB304600F025F8FB43E6
:1049C00053480199029AFEF77DF8012220462946B4
:1049D000FDF764FB03B0F0BD70B506460520040783
:1049E0001025002220462946FDF758FB304600F0EE
:1049F0000BF8FF2000F008F8064601222046294661
:104A0000FDF74CFB304670BD10B584B003A90870AB
:104A100002AC00202070C04300903D480123224694
:104A2000FEF7BCF9207804B010BDC04680B57F21E8
:104A30000140052000F06EF880BDB0B50446401E70
:104A4000844100252846FFF7C7FFFE2101400919D0
:104A5000284600F05FF8B0BDB0B50446072800D383
:104A6000072406252846FFF7B7FFF8210140214318
:104A7000284600F04FF8B0BD80B50523052A00D3C5
:104A80001A46052800D318460A30C0B200F020F8B4
:104A900080BD10B504460620FFF79EFFD7210140D8
:104AA000022C04D0002C04D12020014301E0082076
:104AB0000143062000F02EF810BD80B50A460146DD
:104AC000052A00D30522102000F002F880BD000066
:104AD000F0B583B002920191064605200407102527
:104AE0000027204629463A46FDF7D8FA20200643FB
:104AF0003046FFF789FFFB4305480199029AFEF70C
:104B000099F8012220462946FDF7C8FA03B0F0BD06
:104B100030010020F0B581B00E460746052004079D
:104B20001025002220462946FDF7B8FA2020074329
:104B30003846FFF769FF3046FFF766FF012220463F
:104B40002946FDF7ABFA01B0F0BD000083B0B0B567
:104B500081B0044605A80EC005AB0093084D802126
:104B600028462246FBF798FB2846FBF73DFD014609
:104B70002846FFF7E3FB01B0B0BC01BC03B000471F
:104B80009401002003480121017003480168491C79
:104B900001607047180200201402002080B5FEF763
:104BA0003FFDFEF755FDFEF74DFD80BDB0B51EA0E3
:104BB000FFF7CCFF0124A1031F4D28462246FDF735
:104BC0006DFAE10328462246FDF768FA1BA0FFF7BD
:104BD000BDFFFFF75DFB1C482146FFF797FBFFF782
:104BE0007FFB002801D11A4800E01848FFF7AEFF0C
:104BF00018A0FFF7ABFFFFF7E7FD002806D01FA0C6
:104C0000FFF7A4FF0020FFF741FE02E015A0FFF729
:104C10009DFF1FA0FFF79AFFFFF7B2FD0320FFF7EC
:104C20003BFDFFF7BBFFB0BD53797374656D204941
:104C30006E69740D0A0000000008005041444320D2
:104C4000496E69740D0A000078000020FD530008C9
:104C5000E953000853493234523120496E69740DCA
:104C60000A000000534932345231204465746563B0
:104C700074204661696C65640D0A00005349323442
:104C800052312044657465637465640D0A00000048
:104C90004D4B383030302055574220496E69740DE5
:104CA0000A00000070B5FFF769FB0E4908600E4965
:104CB00000F04AF90246401E82410125E9030B4CEF
:104CC0002046FDF7EBF90A4E3078002805D0A903FD
:104CD0002046FDF7DBF9002030700A20FDF7FAF8D6
:104CE00070BDC0467C000020CDCC6C400008005058
:104CF0002C01002043088B421AD3002203098B4267
:104D000079D3030A8B425ED3030B8B4242D3030C4D
:104D10008B4227D30902FF2212BA030C8B4202D323
:104D20001212090203D0030B8B4233D31AE0D3E0F3
:104D3000411A8041401C704703460B4371D443081D
:104D40008B42F5D3002203098B4254D3030A8B42D2
:104D500039D3030B8B421DD3030C8B4202D39446F1
:104D60006EE0090AC30B8B4201D3CB03C01A524138
:104D7000830B8B4201D38B03C01A5241430B8B42EE
:104D800001D34B03C01A5241030B8B4201D30B03D7
:104D9000C01A5241C30A8B4201D3CB02C01A5241FE
:104DA000830A8B4201D38B02C01A5241430A8B42C1
:104DB00001D34B02C01A5241030A8B4201D30B02AA
:104DC000C01A5241CDD2C3098B4201D3CB01C01AC4
:104DD000524183098B4201D38B01C01A52414309CE
:104DE0008B4201D34B01C01A524103098B4201D3BC
:104DF0000B01C01A5241C3088B4201D3CB00C01A29
:104E0000524183088B4201D38B00C01A52414308A0
:104E10008B4201D34B00C01A5241411A524110003B
:104E20007047CA0F00D04942031000D3404253409C
:104E300000229C4603098B422DD3030A8B4212D3D6
:104E40008901FC2212BA030A8B420CD38901921108
:104E50008B4208D3890192118B4204D3890137D048
:104E6000921100E08909C3098B4201D3CB01C01A1A
:104E7000524183098B4201D38B01C01A524143092D
:104E80008B4201D34B01C01A524103098B4201D31B
:104E90000B01C01A5241C3088B4201D3CB00C01A88
:104EA000524183088B4201D38B00C01A5241D9D2A0
:104EB00043088B4201D34B00C01A5241411A00D221
:104EC00001465241104663465B1000D34042704792
:104ED00063465B1000D3404201B50021004201D07F
:104EE000C9430846C046C04602BDF8B5040C8BB2A3
:104EF000264682B25E43104658430D0C370C3604EA
:104F000000218019164679416E43370C360480190A
:104F1000264679416E438919F8BD00004900CA024E
:104F20000243100000D004204A0D01D0012210439A
:104F3000044A490D914201D102210843012800D1C0
:104F400005207047FF07000010B500F081F8EFF36F
:104F50000080800001D5012010BD002010BD303838
:104F60000A2801D2012070470020704710B500299F
:104F70000AD00878002807D005487844FCF702FFDB
:104F8000002801D0002010BD0248784410BD000068
:104F9000BA040000B204000010B500290AD0087855
:104FA000002807D005487844FCF7ECFE002801D023
:104FB000002010BD0248784410BD0000AA04000083
:104FC000A204000070B50125ED0704004C4020D478
:104FD000441A01D2001B0919C60D4B00F2B2FF2A78
:104FE00029D01B0E2CD000020C0228432C43D31ACC
:104FF000DC40051910D2280A02D3401C6D0611D0DE
:10500000761EF6058019FF2A00DA70BDC00DC005B6
:1050100070BD694000F0A4F801200543C541521C51
:10502000761CE8E764089C40C90161408900E7D12B
:105030000124A043E4E71B0E440200D0034870BDE6
:10504000002AFCD1C00FC00770BD00BF0000C07FA8
:105050000123DB0502000A430DD4DA4203D49A424D
:1050600007D488427047D84214D4D94212D4884217
:10507000704780427047DA4203D59A42F9D581429F
:1050800070475B004200DA4204D24A00DA4201D2A1
:105090008142704710B5024AFCF77AFA10BD00BF92
:1050A0000900130470B5420064414B005C41120ECC
:1050B00039D01B0E38D0FF2A3CD0FF2B3AD0D21863
:1050C0007F3A40024902400A490A4518ED010600AC
:1050D0004E43000A090A48430104731A4019190C87
:1050E0004318990F04D05B08012149075B1A521C31
:1050F000D80904D3401CF50301D19D0607D0FF2A2F
:1051000008D2D50506D0E4072043401970BD01251B
:10511000A843F4E7002A01DCE00770BD2402FF2069
:105120002043C00570BD1B0EFF2A03D0FF2B01D00A
:10513000E00770BDFF2636064500B54206D84D0093
:10514000B54203D8D218FF2A00D0E7E7004870BD67
:105150000000C07F70B50125ED0704004C4022D44B
:10516000441A02D26C40001B0919C60D4B00F2B262
:10517000FF2A4BD01B0E50D000020C02A8432C4338
:10518000D31ADC40051B05D5AD0019D36D08761E7A
:10519000521E37D0F605280A01D2801970BD704121
:1051A0006D0603D070BD6940FFF712FF9C400902F5
:1051B0006140490001D0401E70BD0124A04370BD74
:1051C0006D081DD001202B0C01D12D0410302B0EA9
:1051D00001D12D0208302B0F01D12D01001DAB0F85
:1051E00001D1AD00801CEB0F01D16D00401C361ABF
:1051F000121A6D00680AF5054019012A02DB70BD1C
:10520000002070BDC036300AC00770BD1B0E4402BE
:1052100001D1FF2B00D1024870BD002AF0D070BD33
:105220000000C07F03B402487844844603BC604752
:1052300075BDFFFF03B402487844844603BC604751
:10524000DDBFFFFF30313233343536373839414234
:1052500043444546403058003031323334353637D8
:105260003839616263646566403078000400000884
:105270000000000000000002000100001081828395
:105280008485868788898B8C8D8E8F919293959655
:1052900097999A9C9D9FA0A2A3A5A7A8AAACAEB0DF
:1052A000B2B3B5B7B9BCBEC0C2C5C7C9CCCED1D4E4
:1052B000D7D9DCDFE2E6E9ECF0F3F7FAFE00000014
:1052C0000000000000000000303132333435363742
:1052D0003839616263646566787000303132333426
:1052E000353637383941424344454658500000006E
:1052F00002400000000000A0000000000540000087
:10530000000000C8000000000C4000000000409CAD
:1053100000000000194000000020BCBE000000009A
:1053200034400000BFC91B8E00000004B5400000DF
:10533000504BCFD06607E2CF010000006C41000067
:105340003E8251AADFEEA73401000000D9420000DE
:10535000DCB5A0E23A301F97FFFFFFFFB445000025
:10536000FD25A0C8E9A3C14FFFFFFFFFFF3F0000DD
:105370000000008000000000FF3F000000000080EF
:10538000000000000000000000000000000000001D
:10539000000000000000000000000000000000000D
:1053A00000000000010000000200000003000000F7
:1053B00004000000060000000700000008000000D4
:1053C00009000000000000000000000000000000D4
:1053D00000000000010000000200000003000000C7
:1053E00004000000081C30445841444320537461B9
:1053F0007274204661696C65642E0D0A0041444355
:1054000020537461727465642053756363657373AC
:105410002E0D0A0060550008000000201800000052
:105420000401000878550008180000200808000052
:10543000200100081C00000043000000F8FFFFFFEF
:105440000C0000000E0000000F0000002E00000005
:105450001001000043000000F8FFFFFF0040404043
:105460004040404040404141414141404040404037
:1054700040404040404040404040404040050202E3
:1054800002020202020202020202020202202020A2
:1054900020202020202020020202020202029090FE
:1054A00090909090101010101010101010101010FC
:1054B0001010101010101010020202020202888850
:1054C000888888880808080808080808080808085C
:1054D0000808080808080808020202024000000044
:1054E00000000000000000000000000000000000BC
:1054F00000000000000000000000000000000000AC
:10550000000000000000000000000000000000009B
:10551000000000000000000000000000000000008B
:10552000000000000000000000000000000000007B
:10553000000000000000000000000000000000006B
:10554000000000000000000000000000000000005B
:10555000000000000000000000000000000000004B
:105560000024F400344310100134431010010100F2
:0855700004000000000000002F
:04000005080000C12E
:00000001FF
